{
  "_format": "hh-sol-artifact-1",
  "contractName": "BadgeNft",
  "sourceName": "contracts/BadgeNft.sol",
  "abi": [
    {
      "inputs": [],
      "stateMutability": "nonpayable",
      "type": "constructor"
    },
    {
      "anonymous": false,
      "inputs": [
        {
          "indexed": true,
          "internalType": "address",
          "name": "account",
          "type": "address"
        },
        {
          "indexed": true,
          "internalType": "address",
          "name": "operator",
          "type": "address"
        },
        {
          "indexed": false,
          "internalType": "bool",
          "name": "approved",
          "type": "bool"
        }
      ],
      "name": "ApprovalForAll",
      "type": "event"
    },
    {
      "anonymous": false,
      "inputs": [
        {
          "indexed": true,
          "internalType": "address",
          "name": "operator",
          "type": "address"
        },
        {
          "indexed": true,
          "internalType": "address",
          "name": "from",
          "type": "address"
        },
        {
          "indexed": true,
          "internalType": "address",
          "name": "to",
          "type": "address"
        },
        {
          "indexed": false,
          "internalType": "uint256[]",
          "name": "ids",
          "type": "uint256[]"
        },
        {
          "indexed": false,
          "internalType": "uint256[]",
          "name": "values",
          "type": "uint256[]"
        }
      ],
      "name": "TransferBatch",
      "type": "event"
    },
    {
      "anonymous": false,
      "inputs": [
        {
          "indexed": true,
          "internalType": "address",
          "name": "operator",
          "type": "address"
        },
        {
          "indexed": true,
          "internalType": "address",
          "name": "from",
          "type": "address"
        },
        {
          "indexed": true,
          "internalType": "address",
          "name": "to",
          "type": "address"
        },
        {
          "indexed": false,
          "internalType": "uint256",
          "name": "id",
          "type": "uint256"
        },
        {
          "indexed": false,
          "internalType": "uint256",
          "name": "value",
          "type": "uint256"
        }
      ],
      "name": "TransferSingle",
      "type": "event"
    },
    {
      "anonymous": false,
      "inputs": [
        {
          "indexed": false,
          "internalType": "string",
          "name": "value",
          "type": "string"
        },
        {
          "indexed": true,
          "internalType": "uint256",
          "name": "id",
          "type": "uint256"
        }
      ],
      "name": "URI",
      "type": "event"
    },
    {
      "inputs": [
        {
          "internalType": "address",
          "name": "account",
          "type": "address"
        },
        {
          "internalType": "uint256",
          "name": "id",
          "type": "uint256"
        }
      ],
      "name": "balanceOf",
      "outputs": [
        {
          "internalType": "uint256",
          "name": "",
          "type": "uint256"
        }
      ],
      "stateMutability": "view",
      "type": "function"
    },
    {
      "inputs": [
        {
          "internalType": "address",
          "name": "account",
          "type": "address"
        }
      ],
      "name": "balanceOf",
      "outputs": [
        {
          "internalType": "uint256",
          "name": "",
          "type": "uint256"
        }
      ],
      "stateMutability": "view",
      "type": "function"
    },
    {
      "inputs": [
        {
          "internalType": "address[]",
          "name": "accounts",
          "type": "address[]"
        },
        {
          "internalType": "uint256[]",
          "name": "ids",
          "type": "uint256[]"
        }
      ],
      "name": "balanceOfBatch",
      "outputs": [
        {
          "internalType": "uint256[]",
          "name": "",
          "type": "uint256[]"
        }
      ],
      "stateMutability": "view",
      "type": "function"
    },
    {
      "inputs": [
        {
          "internalType": "uint256",
          "name": "",
          "type": "uint256"
        }
      ],
      "name": "baseMaxBadgeId",
      "outputs": [
        {
          "internalType": "uint256",
          "name": "",
          "type": "uint256"
        }
      ],
      "stateMutability": "view",
      "type": "function"
    },
    {
      "inputs": [
        {
          "internalType": "string",
          "name": "image",
          "type": "string"
        },
        {
          "internalType": "uint256",
          "name": "total",
          "type": "uint256"
        },
        {
          "internalType": "string",
          "name": "name",
          "type": "string"
        },
        {
          "internalType": "string",
          "name": "description",
          "type": "string"
        },
        {
          "internalType": "uint256",
          "name": "circlesId",
          "type": "uint256"
        }
      ],
      "name": "defineBadge",
      "outputs": [
        {
          "internalType": "uint256",
          "name": "baseId",
          "type": "uint256"
        }
      ],
      "stateMutability": "nonpayable",
      "type": "function"
    },
    {
      "inputs": [
        {
          "internalType": "address",
          "name": "account",
          "type": "address"
        },
        {
          "internalType": "address",
          "name": "operator",
          "type": "address"
        }
      ],
      "name": "isApprovedForAll",
      "outputs": [
        {
          "internalType": "bool",
          "name": "",
          "type": "bool"
        }
      ],
      "stateMutability": "view",
      "type": "function"
    },
    {
      "inputs": [
        {
          "internalType": "address",
          "name": "to",
          "type": "address"
        },
        {
          "internalType": "uint256",
          "name": "amount",
          "type": "uint256"
        },
        {
          "internalType": "uint256",
          "name": "baseId",
          "type": "uint256"
        }
      ],
      "name": "mint",
      "outputs": [
        {
          "internalType": "uint256",
          "name": "badgeId",
          "type": "uint256"
        }
      ],
      "stateMutability": "nonpayable",
      "type": "function"
    },
    {
      "inputs": [],
      "name": "owner",
      "outputs": [
        {
          "internalType": "address",
          "name": "",
          "type": "address"
        }
      ],
      "stateMutability": "view",
      "type": "function"
    },
    {
      "inputs": [
        {
          "internalType": "address",
          "name": "from",
          "type": "address"
        },
        {
          "internalType": "address",
          "name": "to",
          "type": "address"
        },
        {
          "internalType": "uint256[]",
          "name": "ids",
          "type": "uint256[]"
        },
        {
          "internalType": "uint256[]",
          "name": "amounts",
          "type": "uint256[]"
        },
        {
          "internalType": "bytes",
          "name": "data",
          "type": "bytes"
        }
      ],
      "name": "safeBatchTransferFrom",
      "outputs": [],
      "stateMutability": "nonpayable",
      "type": "function"
    },
    {
      "inputs": [
        {
          "internalType": "address",
          "name": "from",
          "type": "address"
        },
        {
          "internalType": "address",
          "name": "to",
          "type": "address"
        },
        {
          "internalType": "uint256",
          "name": "id",
          "type": "uint256"
        },
        {
          "internalType": "uint256",
          "name": "amount",
          "type": "uint256"
        },
        {
          "internalType": "bytes",
          "name": "data",
          "type": "bytes"
        }
      ],
      "name": "safeTransferFrom",
      "outputs": [],
      "stateMutability": "nonpayable",
      "type": "function"
    },
    {
      "inputs": [
        {
          "internalType": "address",
          "name": "operator",
          "type": "address"
        },
        {
          "internalType": "bool",
          "name": "approved",
          "type": "bool"
        }
      ],
      "name": "setApprovalForAll",
      "outputs": [],
      "stateMutability": "nonpayable",
      "type": "function"
    },
    {
      "inputs": [
        {
          "internalType": "bytes4",
          "name": "interfaceId",
          "type": "bytes4"
        }
      ],
      "name": "supportsInterface",
      "outputs": [
        {
          "internalType": "bool",
          "name": "",
          "type": "bool"
        }
      ],
      "stateMutability": "view",
      "type": "function"
    },
    {
      "inputs": [
        {
          "internalType": "uint256",
          "name": "badgeId",
          "type": "uint256"
        }
      ],
      "name": "uri",
      "outputs": [
        {
          "internalType": "string",
          "name": "",
          "type": "string"
        }
      ],
      "stateMutability": "view",
      "type": "function"
    }
  ],
  "bytecode": "0x608060405260006005553480156200001657600080fd5b506040518060200160405280600081525062000038816200008060201b60201c565b5033600960006101000a81548173ffffffffffffffffffffffffffffffffffffffff021916908373ffffffffffffffffffffffffffffffffffffffff160217905550620001b1565b8060029080519060200190620000989291906200009c565b5050565b828054620000aa906200017b565b90600052602060002090601f016020900481019282620000ce57600085556200011a565b82601f10620000e957805160ff19168380011785556200011a565b828001600101855582156200011a579182015b8281111562000119578251825591602001919060010190620000fc565b5b5090506200012991906200012d565b5090565b5b80821115620001485760008160009055506001016200012e565b5090565b7f4e487b7100000000000000000000000000000000000000000000000000000000600052602260045260246000fd5b600060028204905060018216806200019457607f821691505b60208210811415620001ab57620001aa6200014c565b5b50919050565b61405080620001c16000396000f3fe608060405234801561001057600080fd5b50600436106100ce5760003560e01c80634e1273f41161008c5780638da5cb5b116100665780638da5cb5b1461026f578063a22cb4651461028d578063e985e9c5146102a9578063f242432a146102d9576100ce565b80634e1273f4146101df57806370a082311461020f5780637e83bf631461023f576100ce565b8062fdd58e146100d357806301ffc9a7146101035780630e89341c14610133578063156e29f6146101635780632eb2c2d61461019357806339bf6d28146101af575b600080fd5b6100ed60048036038101906100e8919061260f565b6102f5565b6040516100fa919061265e565b60405180910390f35b61011d600480360381019061011891906126d1565b6103be565b60405161012a9190612719565b60405180910390f35b61014d60048036038101906101489190612734565b6104a0565b60405161015a91906127fa565b60405180910390f35b61017d6004803603810190610178919061281c565b610899565b60405161018a919061265e565b60405180910390f35b6101ad60048036038101906101a89190612a6c565b61106d565b005b6101c960048036038101906101c49190612bdc565b61110e565b6040516101d6919061265e565b60405180910390f35b6101f960048036038101906101f49190612d6e565b61125b565b6040516102069190612ea4565b60405180910390f35b61022960048036038101906102249190612ec6565b611374565b604051610236919061265e565b60405180910390f35b61025960048036038101906102549190612734565b61142f565b604051610266919061265e565b60405180910390f35b610277611447565b6040516102849190612f02565b60405180910390f35b6102a760048036038101906102a29190612f49565b61146d565b005b6102c360048036038101906102be9190612f89565b611483565b6040516102d09190612719565b60405180910390f35b6102f360048036038101906102ee9190612fc9565b611517565b005b60008073ffffffffffffffffffffffffffffffffffffffff168373ffffffffffffffffffffffffffffffffffffffff161415610366576040517f08c379a000000000000000000000000000000000000000000000000000000000815260040161035d906130d2565b60405180910390fd5b60008083815260200190815260200160002060008473ffffffffffffffffffffffffffffffffffffffff1673ffffffffffffffffffffffffffffffffffffffff16815260200190815260200160002054905092915050565b60007fd9b67a26000000000000000000000000000000000000000000000000000000007bffffffffffffffffffffffffffffffffffffffffffffffffffffffff1916827bffffffffffffffffffffffffffffffffffffffffffffffffffffffff1916148061048957507f0e89341c000000000000000000000000000000000000000000000000000000007bffffffffffffffffffffffffffffffffffffffffffffffffffffffff1916827bffffffffffffffffffffffffffffffffffffffffffffffffffffffff1916145b806104995750610498826115b8565b5b9050919050565b60606000600460008481526020019081526020016000206000015414156104fc576040517f08c379a00000000000000000000000000000000000000000000000000000000081526004016104f39061313e565b60405180910390fd5b6000600460008481526020019081526020016000206040518060a001604052908160008201548152602001600182015481526020016002820160009054906101000a900473ffffffffffffffffffffffffffffffffffffffff1673ffffffffffffffffffffffffffffffffffffffff1673ffffffffffffffffffffffffffffffffffffffff1681526020016003820160009054906101000a900473ffffffffffffffffffffffffffffffffffffffff1673ffffffffffffffffffffffffffffffffffffffff1673ffffffffffffffffffffffffffffffffffffffff1681526020016004820160009054906101000a900473ffffffffffffffffffffffffffffffffffffffff1673ffffffffffffffffffffffffffffffffffffffff1673ffffffffffffffffffffffffffffffffffffffff168152505090506000816020015190506000600360008381526020019081526020016000206040518060e0016040529081600082015481526020016001820180546106779061318d565b80601f01602080910402602001604051908101604052809291908181526020018280546106a39061318d565b80156106f05780601f106106c5576101008083540402835291602001916106f0565b820191906000526020600020905b8154815290600101906020018083116106d357829003601f168201915b50505050508152602001600282015481526020016003820154815260200160048201805461071d9061318d565b80601f01602080910402602001604051908101604052809291908181526020018280546107499061318d565b80156107965780601f1061076b57610100808354040283529160200191610796565b820191906000526020600020905b81548152906001019060200180831161077957829003601f168201915b505050505081526020016005820180546107af9061318d565b80601f01602080910402602001604051908101604052809291908181526020018280546107db9061318d565b80156108285780601f106107fd57610100808354040283529160200191610828565b820191906000526020600020905b81548152906001019060200180831161080b57829003601f168201915b505050505081526020016006820154815250509050600081602001518260200151836020015184608001518560a001516108618b611622565b876080015160405160200161087c9796959493929190613377565b604051602081830303815290604052905080945050505050919050565b6000600960009054906101000a900473ffffffffffffffffffffffffffffffffffffffff1673ffffffffffffffffffffffffffffffffffffffff163373ffffffffffffffffffffffffffffffffffffffff16146108f557600080fd5b60006003600084815260200190815260200160002060000154141561094f576040517f08c379a00000000000000000000000000000000000000000000000000000000081526004016109469061349c565b60405180910390fd5b600073ffffffffffffffffffffffffffffffffffffffff168473ffffffffffffffffffffffffffffffffffffffff1614156109bf576040517f08c379a00000000000000000000000000000000000000000000000000000000081526004016109b690613508565b60405180910390fd5b6000600360008481526020019081526020016000206040518060e0016040529081600082015481526020016001820180546109f99061318d565b80601f0160208091040260200160405190810160405280929190818152602001828054610a259061318d565b8015610a725780601f10610a4757610100808354040283529160200191610a72565b820191906000526020600020905b815481529060010190602001808311610a5557829003601f168201915b505050505081526020016002820154815260200160038201548152602001600482018054610a9f9061318d565b80601f0160208091040260200160405190810160405280929190818152602001828054610acb9061318d565b8015610b185780601f10610aed57610100808354040283529160200191610b18565b820191906000526020600020905b815481529060010190602001808311610afb57829003601f168201915b50505050508152602001600582018054610b319061318d565b80601f0160208091040260200160405190810160405280929190818152602001828054610b5d9061318d565b8015610baa5780601f10610b7f57610100808354040283529160200191610baa565b820191906000526020600020905b815481529060010190602001808311610b8d57829003601f168201915b5050505050815260200160068201548152505090506000816060015111610c06576040517f08c379a0000000000000000000000000000000000000000000000000000000008152600401610bfd90613574565b60405180910390fd5b60018160600151610c1791906135c3565b816060018181525050600060066000858152602001908152602001600020549050600181610c4591906135f7565b9250826006600086815260200190815260200160002081905550610c7a86848760405180602001604052806000815250611783565b60006040518060a001604052808581526020018681526020018873ffffffffffffffffffffffffffffffffffffffff1681526020013373ffffffffffffffffffffffffffffffffffffffff1681526020018873ffffffffffffffffffffffffffffffffffffffff168152509050600760008873ffffffffffffffffffffffffffffffffffffffff1673ffffffffffffffffffffffffffffffffffffffff168152602001908152602001600020819080600181540180825580915050600190039060005260206000209060050201600090919091909150600082015181600001556020820151816001015560408201518160020160006101000a81548173ffffffffffffffffffffffffffffffffffffffff021916908373ffffffffffffffffffffffffffffffffffffffff16021790555060608201518160030160006101000a81548173ffffffffffffffffffffffffffffffffffffffff021916908373ffffffffffffffffffffffffffffffffffffffff16021790555060808201518160040160006101000a81548173ffffffffffffffffffffffffffffffffffffffff021916908373ffffffffffffffffffffffffffffffffffffffff160217905550505060086000868152602001908152602001600020819080600181540180825580915050600190039060005260206000209060050201600090919091909150600082015181600001556020820151816001015560408201518160020160006101000a81548173ffffffffffffffffffffffffffffffffffffffff021916908373ffffffffffffffffffffffffffffffffffffffff16021790555060608201518160030160006101000a81548173ffffffffffffffffffffffffffffffffffffffff021916908373ffffffffffffffffffffffffffffffffffffffff16021790555060808201518160040160006101000a81548173ffffffffffffffffffffffffffffffffffffffff021916908373ffffffffffffffffffffffffffffffffffffffff16021790555050508060046000868152602001908152602001600020600082015181600001556020820151816001015560408201518160020160006101000a81548173ffffffffffffffffffffffffffffffffffffffff021916908373ffffffffffffffffffffffffffffffffffffffff16021790555060608201518160030160006101000a81548173ffffffffffffffffffffffffffffffffffffffff021916908373ffffffffffffffffffffffffffffffffffffffff16021790555060808201518160040160006101000a81548173ffffffffffffffffffffffffffffffffffffffff021916908373ffffffffffffffffffffffffffffffffffffffff1602179055509050505050509392505050565b611075611934565b73ffffffffffffffffffffffffffffffffffffffff168573ffffffffffffffffffffffffffffffffffffffff1614806110bb57506110ba856110b5611934565b611483565b5b6110fa576040517f08c379a00000000000000000000000000000000000000000000000000000000081526004016110f1906136bf565b60405180910390fd5b611107858585858561193c565b5050505050565b6000600960009054906101000a900473ffffffffffffffffffffffffffffffffffffffff1673ffffffffffffffffffffffffffffffffffffffff163373ffffffffffffffffffffffffffffffffffffffff161461116a57600080fd5b600160055461117991906135f7565b600581905550600554905060006040518060e0016040528083815260200188815260200187815260200187815260200186815260200185815260200184815250905080600360008481526020019081526020016000206000820151816000015560208201518160010190805190602001906111f59291906124c4565b50604082015181600201556060820151816003015560808201518160040190805190602001906112269291906124c4565b5060a08201518160050190805190602001906112439291906124c4565b5060c082015181600601559050505095945050505050565b606081518351146112a1576040517f08c379a000000000000000000000000000000000000000000000000000000000815260040161129890613751565b60405180910390fd5b6000835167ffffffffffffffff8111156112be576112bd612874565b5b6040519080825280602002602001820160405280156112ec5781602001602082028036833780820191505090505b50905060005b84518110156113695761133985828151811061131157611310613771565b5b602002602001015185838151811061132c5761132b613771565b5b60200260200101516102f5565b82828151811061134c5761134b613771565b5b60200260200101818152505080611362906137a0565b90506112f2565b508091505092915050565b60008073ffffffffffffffffffffffffffffffffffffffff168273ffffffffffffffffffffffffffffffffffffffff1614156113e5576040517f08c379a00000000000000000000000000000000000000000000000000000000081526004016113dc9061385b565b60405180910390fd5b600760008373ffffffffffffffffffffffffffffffffffffffff1673ffffffffffffffffffffffffffffffffffffffff168152602001908152602001600020805490509050919050565b60066020528060005260406000206000915090505481565b600960009054906101000a900473ffffffffffffffffffffffffffffffffffffffff1681565b61147f611478611934565b8383611c5e565b5050565b6000600160008473ffffffffffffffffffffffffffffffffffffffff1673ffffffffffffffffffffffffffffffffffffffff16815260200190815260200160002060008373ffffffffffffffffffffffffffffffffffffffff1673ffffffffffffffffffffffffffffffffffffffff16815260200190815260200160002060009054906101000a900460ff16905092915050565b61151f611934565b73ffffffffffffffffffffffffffffffffffffffff168573ffffffffffffffffffffffffffffffffffffffff16148061156557506115648561155f611934565b611483565b5b6115a4576040517f08c379a000000000000000000000000000000000000000000000000000000000815260040161159b906138ed565b60405180910390fd5b6115b18585858585611dcb565b5050505050565b60007f01ffc9a7000000000000000000000000000000000000000000000000000000007bffffffffffffffffffffffffffffffffffffffffffffffffffffffff1916827bffffffffffffffffffffffffffffffffffffffffffffffffffffffff1916149050919050565b6060600082141561166a576040518060400160405280600181526020017f3000000000000000000000000000000000000000000000000000000000000000815250905061177e565b600082905060005b6000821461169c578080611685906137a0565b915050600a82611695919061393c565b9150611672565b60008167ffffffffffffffff8111156116b8576116b7612874565b5b6040519080825280601f01601f1916602001820160405280156116ea5781602001600182028036833780820191505090505b5090505b600085146117775760018261170391906135c3565b9150600a85611712919061396d565b603061171e91906135f7565b60f81b81838151811061173457611733613771565b5b60200101907effffffffffffffffffffffffffffffffffffffffffffffffffffffffffffff1916908160001a905350600a85611770919061393c565b94506116ee565b8093505050505b919050565b600073ffffffffffffffffffffffffffffffffffffffff168473ffffffffffffffffffffffffffffffffffffffff1614156117f3576040517f08c379a00000000000000000000000000000000000000000000000000000000081526004016117ea90613a10565b60405180910390fd5b60006117fd611934565b9050600061180a85612067565b9050600061181785612067565b9050611828836000898585896120e1565b8460008088815260200190815260200160002060008973ffffffffffffffffffffffffffffffffffffffff1673ffffffffffffffffffffffffffffffffffffffff168152602001908152602001600020600082825461188791906135f7565b925050819055508673ffffffffffffffffffffffffffffffffffffffff16600073ffffffffffffffffffffffffffffffffffffffff168473ffffffffffffffffffffffffffffffffffffffff167fc3d58168c5ae7397731d063d5bbf3d657854427343f4c083240f7aacaa2d0f628989604051611905929190613a30565b60405180910390a461191c836000898585896120e9565b61192b836000898989896120f1565b50505050505050565b600033905090565b8151835114611980576040517f08c379a000000000000000000000000000000000000000000000000000000000815260040161197790613acb565b60405180910390fd5b600073ffffffffffffffffffffffffffffffffffffffff168473ffffffffffffffffffffffffffffffffffffffff1614156119f0576040517f08c379a00000000000000000000000000000000000000000000000000000000081526004016119e790613b5d565b60405180910390fd5b60006119fa611934565b9050611a0a8187878787876120e1565b60005b8451811015611bbb576000858281518110611a2b57611a2a613771565b5b602002602001015190506000858381518110611a4a57611a49613771565b5b60200260200101519050600080600084815260200190815260200160002060008b73ffffffffffffffffffffffffffffffffffffffff1673ffffffffffffffffffffffffffffffffffffffff16815260200190815260200160002054905081811015611aeb576040517f08c379a0000000000000000000000000000000000000000000000000000000008152600401611ae290613bef565b60405180910390fd5b81810360008085815260200190815260200160002060008c73ffffffffffffffffffffffffffffffffffffffff1673ffffffffffffffffffffffffffffffffffffffff168152602001908152602001600020819055508160008085815260200190815260200160002060008b73ffffffffffffffffffffffffffffffffffffffff1673ffffffffffffffffffffffffffffffffffffffff1681526020019081526020016000206000828254611ba091906135f7565b9250508190555050505080611bb4906137a0565b9050611a0d565b508473ffffffffffffffffffffffffffffffffffffffff168673ffffffffffffffffffffffffffffffffffffffff168273ffffffffffffffffffffffffffffffffffffffff167f4a39dc06d4c0dbc64b70af90fd698a233a518aa5d07e595d983b8c0526c8f7fb8787604051611c32929190613c0f565b60405180910390a4611c488187878787876120e9565b611c568187878787876122c9565b505050505050565b8173ffffffffffffffffffffffffffffffffffffffff168373ffffffffffffffffffffffffffffffffffffffff161415611ccd576040517f08c379a0000000000000000000000000000000000000000000000000000000008152600401611cc490613cb8565b60405180910390fd5b80600160008573ffffffffffffffffffffffffffffffffffffffff1673ffffffffffffffffffffffffffffffffffffffff16815260200190815260200160002060008473ffffffffffffffffffffffffffffffffffffffff1673ffffffffffffffffffffffffffffffffffffffff16815260200190815260200160002060006101000a81548160ff0219169083151502179055508173ffffffffffffffffffffffffffffffffffffffff168373ffffffffffffffffffffffffffffffffffffffff167f17307eab39ab6107e8899845ad3d59bd9653f200f220920489ca2b5937696c3183604051611dbe9190612719565b60405180910390a3505050565b600073ffffffffffffffffffffffffffffffffffffffff168473ffffffffffffffffffffffffffffffffffffffff161415611e3b576040517f08c379a0000000000000000000000000000000000000000000000000000000008152600401611e3290613b5d565b60405180910390fd5b6000611e45611934565b90506000611e5285612067565b90506000611e5f85612067565b9050611e6f8389898585896120e1565b600080600088815260200190815260200160002060008a73ffffffffffffffffffffffffffffffffffffffff1673ffffffffffffffffffffffffffffffffffffffff16815260200190815260200160002054905085811015611f06576040517f08c379a0000000000000000000000000000000000000000000000000000000008152600401611efd90613bef565b60405180910390fd5b85810360008089815260200190815260200160002060008b73ffffffffffffffffffffffffffffffffffffffff1673ffffffffffffffffffffffffffffffffffffffff168152602001908152602001600020819055508560008089815260200190815260200160002060008a73ffffffffffffffffffffffffffffffffffffffff1673ffffffffffffffffffffffffffffffffffffffff1681526020019081526020016000206000828254611fbb91906135f7565b925050819055508773ffffffffffffffffffffffffffffffffffffffff168973ffffffffffffffffffffffffffffffffffffffff168573ffffffffffffffffffffffffffffffffffffffff167fc3d58168c5ae7397731d063d5bbf3d657854427343f4c083240f7aacaa2d0f628a8a604051612038929190613a30565b60405180910390a461204e848a8a86868a6120e9565b61205c848a8a8a8a8a6120f1565b505050505050505050565b60606000600167ffffffffffffffff81111561208657612085612874565b5b6040519080825280602002602001820160405280156120b45781602001602082028036833780820191505090505b50905082816000815181106120cc576120cb613771565b5b60200260200101818152505080915050919050565b505050505050565b505050505050565b6121108473ffffffffffffffffffffffffffffffffffffffff166124a1565b156122c1578373ffffffffffffffffffffffffffffffffffffffff1663f23a6e6187878686866040518663ffffffff1660e01b8152600401612156959493929190613d2d565b6020604051808303816000875af192505050801561219257506040513d601f19601f8201168201806040525081019061218f9190613d9c565b60015b6122385761219e613dd6565b806308c379a014156121fb57506121b3613df8565b806121be57506121fd565b806040517f08c379a00000000000000000000000000000000000000000000000000000000081526004016121f291906127fa565b60405180910390fd5b505b6040517f08c379a000000000000000000000000000000000000000000000000000000000815260040161222f90613f00565b60405180910390fd5b63f23a6e6160e01b7bffffffffffffffffffffffffffffffffffffffffffffffffffffffff1916817bffffffffffffffffffffffffffffffffffffffffffffffffffffffff1916146122bf576040517f08c379a00000000000000000000000000000000000000000000000000000000081526004016122b690613f92565b60405180910390fd5b505b505050505050565b6122e88473ffffffffffffffffffffffffffffffffffffffff166124a1565b15612499578373ffffffffffffffffffffffffffffffffffffffff1663bc197c8187878686866040518663ffffffff1660e01b815260040161232e959493929190613fb2565b6020604051808303816000875af192505050801561236a57506040513d601f19601f820116820180604052508101906123679190613d9c565b60015b61241057612376613dd6565b806308c379a014156123d3575061238b613df8565b8061239657506123d5565b806040517f08c379a00000000000000000000000000000000000000000000000000000000081526004016123ca91906127fa565b60405180910390fd5b505b6040517f08c379a000000000000000000000000000000000000000000000000000000000815260040161240790613f00565b60405180910390fd5b63bc197c8160e01b7bffffffffffffffffffffffffffffffffffffffffffffffffffffffff1916817bffffffffffffffffffffffffffffffffffffffffffffffffffffffff191614612497576040517f08c379a000000000000000000000000000000000000000000000000000000000815260040161248e90613f92565b60405180910390fd5b505b505050505050565b6000808273ffffffffffffffffffffffffffffffffffffffff163b119050919050565b8280546124d09061318d565b90600052602060002090601f0160209004810192826124f25760008555612539565b82601f1061250b57805160ff1916838001178555612539565b82800160010185558215612539579182015b8281111561253857825182559160200191906001019061251d565b5b509050612546919061254a565b5090565b5b8082111561256357600081600090555060010161254b565b5090565b6000604051905090565b600080fd5b600080fd5b600073ffffffffffffffffffffffffffffffffffffffff82169050919050565b60006125a68261257b565b9050919050565b6125b68161259b565b81146125c157600080fd5b50565b6000813590506125d3816125ad565b92915050565b6000819050919050565b6125ec816125d9565b81146125f757600080fd5b50565b600081359050612609816125e3565b92915050565b6000806040838503121561262657612625612571565b5b6000612634858286016125c4565b9250506020612645858286016125fa565b9150509250929050565b612658816125d9565b82525050565b6000602082019050612673600083018461264f565b92915050565b60007fffffffff0000000000000000000000000000000000000000000000000000000082169050919050565b6126ae81612679565b81146126b957600080fd5b50565b6000813590506126cb816126a5565b92915050565b6000602082840312156126e7576126e6612571565b5b60006126f5848285016126bc565b91505092915050565b60008115159050919050565b612713816126fe565b82525050565b600060208201905061272e600083018461270a565b92915050565b60006020828403121561274a57612749612571565b5b6000612758848285016125fa565b91505092915050565b600081519050919050565b600082825260208201905092915050565b60005b8381101561279b578082015181840152602081019050612780565b838111156127aa576000848401525b50505050565b6000601f19601f8301169050919050565b60006127cc82612761565b6127d6818561276c565b93506127e681856020860161277d565b6127ef816127b0565b840191505092915050565b6000602082019050818103600083015261281481846127c1565b905092915050565b60008060006060848603121561283557612834612571565b5b6000612843868287016125c4565b9350506020612854868287016125fa565b9250506040612865868287016125fa565b9150509250925092565b600080fd5b7f4e487b7100000000000000000000000000000000000000000000000000000000600052604160045260246000fd5b6128ac826127b0565b810181811067ffffffffffffffff821117156128cb576128ca612874565b5b80604052505050565b60006128de612567565b90506128ea82826128a3565b919050565b600067ffffffffffffffff82111561290a57612909612874565b5b602082029050602081019050919050565b600080fd5b600061293361292e846128ef565b6128d4565b905080838252602082019050602084028301858111156129565761295561291b565b5b835b8181101561297f578061296b88826125fa565b845260208401935050602081019050612958565b5050509392505050565b600082601f83011261299e5761299d61286f565b5b81356129ae848260208601612920565b91505092915050565b600080fd5b600067ffffffffffffffff8211156129d7576129d6612874565b5b6129e0826127b0565b9050602081019050919050565b82818337600083830152505050565b6000612a0f612a0a846129bc565b6128d4565b905082815260208101848484011115612a2b57612a2a6129b7565b5b612a368482856129ed565b509392505050565b600082601f830112612a5357612a5261286f565b5b8135612a638482602086016129fc565b91505092915050565b600080600080600060a08688031215612a8857612a87612571565b5b6000612a96888289016125c4565b9550506020612aa7888289016125c4565b945050604086013567ffffffffffffffff811115612ac857612ac7612576565b5b612ad488828901612989565b935050606086013567ffffffffffffffff811115612af557612af4612576565b5b612b0188828901612989565b925050608086013567ffffffffffffffff811115612b2257612b21612576565b5b612b2e88828901612a3e565b9150509295509295909350565b600067ffffffffffffffff821115612b5657612b55612874565b5b612b5f826127b0565b9050602081019050919050565b6000612b7f612b7a84612b3b565b6128d4565b905082815260208101848484011115612b9b57612b9a6129b7565b5b612ba68482856129ed565b509392505050565b600082601f830112612bc357612bc261286f565b5b8135612bd3848260208601612b6c565b91505092915050565b600080600080600060a08688031215612bf857612bf7612571565b5b600086013567ffffffffffffffff811115612c1657612c15612576565b5b612c2288828901612bae565b9550506020612c33888289016125fa565b945050604086013567ffffffffffffffff811115612c5457612c53612576565b5b612c6088828901612bae565b935050606086013567ffffffffffffffff811115612c8157612c80612576565b5b612c8d88828901612bae565b9250506080612c9e888289016125fa565b9150509295509295909350565b600067ffffffffffffffff821115612cc657612cc5612874565b5b602082029050602081019050919050565b6000612cea612ce584612cab565b6128d4565b90508083825260208201905060208402830185811115612d0d57612d0c61291b565b5b835b81811015612d365780612d2288826125c4565b845260208401935050602081019050612d0f565b5050509392505050565b600082601f830112612d5557612d5461286f565b5b8135612d65848260208601612cd7565b91505092915050565b60008060408385031215612d8557612d84612571565b5b600083013567ffffffffffffffff811115612da357612da2612576565b5b612daf85828601612d40565b925050602083013567ffffffffffffffff811115612dd057612dcf612576565b5b612ddc85828601612989565b9150509250929050565b600081519050919050565b600082825260208201905092915050565b6000819050602082019050919050565b612e1b816125d9565b82525050565b6000612e2d8383612e12565b60208301905092915050565b6000602082019050919050565b6000612e5182612de6565b612e5b8185612df1565b9350612e6683612e02565b8060005b83811015612e97578151612e7e8882612e21565b9750612e8983612e39565b925050600181019050612e6a565b5085935050505092915050565b60006020820190508181036000830152612ebe8184612e46565b905092915050565b600060208284031215612edc57612edb612571565b5b6000612eea848285016125c4565b91505092915050565b612efc8161259b565b82525050565b6000602082019050612f176000830184612ef3565b92915050565b612f26816126fe565b8114612f3157600080fd5b50565b600081359050612f4381612f1d565b92915050565b60008060408385031215612f6057612f5f612571565b5b6000612f6e858286016125c4565b9250506020612f7f85828601612f34565b9150509250929050565b60008060408385031215612fa057612f9f612571565b5b6000612fae858286016125c4565b9250506020612fbf858286016125c4565b9150509250929050565b600080600080600060a08688031215612fe557612fe4612571565b5b6000612ff3888289016125c4565b9550506020613004888289016125c4565b9450506040613015888289016125fa565b9350506060613026888289016125fa565b925050608086013567ffffffffffffffff81111561304757613046612576565b5b61305388828901612a3e565b9150509295509295909350565b7f455243313135353a2062616c616e636520717565727920666f7220746865207a60008201527f65726f2061646472657373000000000000000000000000000000000000000000602082015250565b60006130bc602b8361276c565b91506130c782613060565b604082019050919050565b600060208201905081810360008301526130eb816130af565b9050919050565b7f746f6b656e206e6f742065786974730000000000000000000000000000000000600082015250565b6000613128600f8361276c565b9150613133826130f2565b602082019050919050565b600060208201905081810360008301526131578161311b565b9050919050565b7f4e487b7100000000000000000000000000000000000000000000000000000000600052602260045260246000fd5b600060028204905060018216806131a557607f821691505b602082108114156131b9576131b861315e565b5b50919050565b7f7b22696d616765223a22697066733a2f2f000000000000000000000000000000815250565b600081905092915050565b60006131fb82612761565b61320581856131e5565b935061321581856020860161277d565b80840191505092915050565b7f222c226874747055726c223a2268747470733a2f2f697066732e696f2f69706660008201527f732f000000000000000000000000000000000000000000000000000000000000602082015250565b600061327d6022836131e5565b915061328882613221565b602282019050919050565b7f222c22696d61676555726c223a22697066733a2f2f0000000000000000000000815250565b7f222c226e616d65223a2200000000000000000000000000000000000000000000815250565b7f222c226465736372697074696f6e223a22000000000000000000000000000000815250565b7f222c226964223a00000000000000000000000000000000000000000000000000815250565b7f2c227469746c65223a2200000000000000000000000000000000000000000000815250565b7f222c2274797065223a22696d67227d0000000000000000000000000000000000815250565b6000613382826131bf565b601182019150613392828a6131f0565b915061339d82613270565b91506133a982896131f0565b91506133b482613293565b6015820191506133c482886131f0565b91506133cf826132b9565b600a820191506133df82876131f0565b91506133ea826132df565b6011820191506133fa82866131f0565b915061340582613305565b60078201915061341582856131f0565b91506134208261332b565b600a8201915061343082846131f0565b915061343b82613351565b600f8201915081905098975050505050505050565b7f62617365206e6f74206578697473000000000000000000000000000000000000600082015250565b6000613486600e8361276c565b915061349182613450565b602082019050919050565b600060208201905081810360008301526134b581613479565b9050919050565b7f63616e206e6f74206d696e7420746f20746865207a65726f2061646472657373600082015250565b60006134f260208361276c565b91506134fd826134bc565b602082019050919050565b60006020820190508181036000830152613521816134e5565b9050919050565b7f62617365206c656674206e6f7420656e6f756768000000000000000000000000600082015250565b600061355e60148361276c565b915061356982613528565b602082019050919050565b6000602082019050818103600083015261358d81613551565b9050919050565b7f4e487b7100000000000000000000000000000000000000000000000000000000600052601160045260246000fd5b60006135ce826125d9565b91506135d9836125d9565b9250828210156135ec576135eb613594565b5b828203905092915050565b6000613602826125d9565b915061360d836125d9565b9250827fffffffffffffffffffffffffffffffffffffffffffffffffffffffffffffffff0382111561364257613641613594565b5b828201905092915050565b7f455243313135353a207472616e736665722063616c6c6572206973206e6f742060008201527f6f776e6572206e6f7220617070726f7665640000000000000000000000000000602082015250565b60006136a960328361276c565b91506136b48261364d565b604082019050919050565b600060208201905081810360008301526136d88161369c565b9050919050565b7f455243313135353a206163636f756e747320616e6420696473206c656e67746860008201527f206d69736d617463680000000000000000000000000000000000000000000000602082015250565b600061373b60298361276c565b9150613746826136df565b604082019050919050565b6000602082019050818103600083015261376a8161372e565b9050919050565b7f4e487b7100000000000000000000000000000000000000000000000000000000600052603260045260246000fd5b60006137ab826125d9565b91507fffffffffffffffffffffffffffffffffffffffffffffffffffffffffffffffff8214156137de576137dd613594565b5b600182019050919050565b7f61646472657373207a65726f206973206e6f7420612076616c6964206f776e6560008201527f7200000000000000000000000000000000000000000000000000000000000000602082015250565b600061384560218361276c565b9150613850826137e9565b604082019050919050565b6000602082019050818103600083015261387481613838565b9050919050565b7f455243313135353a2063616c6c6572206973206e6f74206f776e6572206e6f7260008201527f20617070726f7665640000000000000000000000000000000000000000000000602082015250565b60006138d760298361276c565b91506138e28261387b565b604082019050919050565b60006020820190508181036000830152613906816138ca565b9050919050565b7f4e487b7100000000000000000000000000000000000000000000000000000000600052601260045260246000fd5b6000613947826125d9565b9150613952836125d9565b9250826139625761396161390d565b5b828204905092915050565b6000613978826125d9565b9150613983836125d9565b9250826139935761399261390d565b5b828206905092915050565b7f455243313135353a206d696e7420746f20746865207a65726f2061646472657360008201527f7300000000000000000000000000000000000000000000000000000000000000602082015250565b60006139fa60218361276c565b9150613a058261399e565b604082019050919050565b60006020820190508181036000830152613a29816139ed565b9050919050565b6000604082019050613a45600083018561264f565b613a52602083018461264f565b9392505050565b7f455243313135353a2069647320616e6420616d6f756e7473206c656e6774682060008201527f6d69736d61746368000000000000000000000000000000000000000000000000602082015250565b6000613ab560288361276c565b9150613ac082613a59565b604082019050919050565b60006020820190508181036000830152613ae481613aa8565b9050919050565b7f455243313135353a207472616e7366657220746f20746865207a65726f20616460008201527f6472657373000000000000000000000000000000000000000000000000000000602082015250565b6000613b4760258361276c565b9150613b5282613aeb565b604082019050919050565b60006020820190508181036000830152613b7681613b3a565b9050919050565b7f455243313135353a20696e73756666696369656e742062616c616e636520666f60008201527f72207472616e7366657200000000000000000000000000000000000000000000602082015250565b6000613bd9602a8361276c565b9150613be482613b7d565b604082019050919050565b60006020820190508181036000830152613c0881613bcc565b9050919050565b60006040820190508181036000830152613c298185612e46565b90508181036020830152613c3d8184612e46565b90509392505050565b7f455243313135353a2073657474696e6720617070726f76616c2073746174757360008201527f20666f722073656c660000000000000000000000000000000000000000000000602082015250565b6000613ca260298361276c565b9150613cad82613c46565b604082019050919050565b60006020820190508181036000830152613cd181613c95565b9050919050565b600081519050919050565b600082825260208201905092915050565b6000613cff82613cd8565b613d098185613ce3565b9350613d1981856020860161277d565b613d22816127b0565b840191505092915050565b600060a082019050613d426000830188612ef3565b613d4f6020830187612ef3565b613d5c604083018661264f565b613d69606083018561264f565b8181036080830152613d7b8184613cf4565b90509695505050505050565b600081519050613d96816126a5565b92915050565b600060208284031215613db257613db1612571565b5b6000613dc084828501613d87565b91505092915050565b60008160e01c9050919050565b600060033d1115613df55760046000803e613df2600051613dc9565b90505b90565b600060443d1015613e0857613e8b565b613e10612567565b60043d036004823e80513d602482011167ffffffffffffffff82111715613e38575050613e8b565b808201805167ffffffffffffffff811115613e565750505050613e8b565b80602083010160043d038501811115613e73575050505050613e8b565b613e82826020018501866128a3565b82955050505050505b90565b7f455243313135353a207472616e7366657220746f206e6f6e204552433131353560008201527f526563656976657220696d706c656d656e746572000000000000000000000000602082015250565b6000613eea60348361276c565b9150613ef582613e8e565b604082019050919050565b60006020820190508181036000830152613f1981613edd565b9050919050565b7f455243313135353a204552433131353552656365697665722072656a6563746560008201527f6420746f6b656e73000000000000000000000000000000000000000000000000602082015250565b6000613f7c60288361276c565b9150613f8782613f20565b604082019050919050565b60006020820190508181036000830152613fab81613f6f565b9050919050565b600060a082019050613fc76000830188612ef3565b613fd46020830187612ef3565b8181036040830152613fe68186612e46565b90508181036060830152613ffa8185612e46565b9050818103608083015261400e8184613cf4565b9050969550505050505056fea2646970667358221220078ff7a72222a40420b52baadd759c3e5371783ffc08942c01b4ceb0043f6d9e64736f6c634300080c0033",
  "linkReferences": {},
  "deployedLinkReferences": {}
}