{
  "_format": "hh-sol-artifact-1",
  "contractName": "BadgeNft",
  "sourceName": "contracts/BadgeNft.sol",
  "abi": [
    {
      "inputs": [],
      "stateMutability": "nonpayable",
      "type": "constructor"
    },
    {
      "anonymous": false,
      "inputs": [
        {
          "indexed": true,
          "internalType": "address",
          "name": "account",
          "type": "address"
        },
        {
          "indexed": true,
          "internalType": "address",
          "name": "operator",
          "type": "address"
        },
        {
          "indexed": false,
          "internalType": "bool",
          "name": "approved",
          "type": "bool"
        }
      ],
      "name": "ApprovalForAll",
      "type": "event"
    },
    {
      "anonymous": false,
      "inputs": [
        {
          "indexed": true,
          "internalType": "address",
          "name": "operator",
          "type": "address"
        },
        {
          "indexed": true,
          "internalType": "address",
          "name": "from",
          "type": "address"
        },
        {
          "indexed": true,
          "internalType": "address",
          "name": "to",
          "type": "address"
        },
        {
          "indexed": false,
          "internalType": "uint256[]",
          "name": "ids",
          "type": "uint256[]"
        },
        {
          "indexed": false,
          "internalType": "uint256[]",
          "name": "values",
          "type": "uint256[]"
        }
      ],
      "name": "TransferBatch",
      "type": "event"
    },
    {
      "anonymous": false,
      "inputs": [
        {
          "indexed": true,
          "internalType": "address",
          "name": "operator",
          "type": "address"
        },
        {
          "indexed": true,
          "internalType": "address",
          "name": "from",
          "type": "address"
        },
        {
          "indexed": true,
          "internalType": "address",
          "name": "to",
          "type": "address"
        },
        {
          "indexed": false,
          "internalType": "uint256",
          "name": "id",
          "type": "uint256"
        },
        {
          "indexed": false,
          "internalType": "uint256",
          "name": "value",
          "type": "uint256"
        }
      ],
      "name": "TransferSingle",
      "type": "event"
    },
    {
      "anonymous": false,
      "inputs": [
        {
          "indexed": false,
          "internalType": "string",
          "name": "value",
          "type": "string"
        },
        {
          "indexed": true,
          "internalType": "uint256",
          "name": "id",
          "type": "uint256"
        }
      ],
      "name": "URI",
      "type": "event"
    },
    {
      "inputs": [
        {
          "internalType": "address",
          "name": "account",
          "type": "address"
        },
        {
          "internalType": "uint256",
          "name": "id",
          "type": "uint256"
        }
      ],
      "name": "balanceOf",
      "outputs": [
        {
          "internalType": "uint256",
          "name": "",
          "type": "uint256"
        }
      ],
      "stateMutability": "view",
      "type": "function"
    },
    {
      "inputs": [
        {
          "internalType": "address",
          "name": "account",
          "type": "address"
        }
      ],
      "name": "balanceOf",
      "outputs": [
        {
          "internalType": "uint256",
          "name": "",
          "type": "uint256"
        }
      ],
      "stateMutability": "view",
      "type": "function"
    },
    {
      "inputs": [
        {
          "internalType": "address[]",
          "name": "accounts",
          "type": "address[]"
        },
        {
          "internalType": "uint256[]",
          "name": "ids",
          "type": "uint256[]"
        }
      ],
      "name": "balanceOfBatch",
      "outputs": [
        {
          "internalType": "uint256[]",
          "name": "",
          "type": "uint256[]"
        }
      ],
      "stateMutability": "view",
      "type": "function"
    },
    {
      "inputs": [
        {
          "internalType": "address",
          "name": "account",
          "type": "address"
        },
        {
          "internalType": "address",
          "name": "operator",
          "type": "address"
        }
      ],
      "name": "isApprovedForAll",
      "outputs": [
        {
          "internalType": "bool",
          "name": "",
          "type": "bool"
        }
      ],
      "stateMutability": "view",
      "type": "function"
    },
    {
      "inputs": [
        {
          "internalType": "address",
          "name": "to",
          "type": "address"
        },
        {
          "internalType": "uint256",
          "name": "tokenId",
          "type": "uint256"
        }
      ],
      "name": "mint",
      "outputs": [],
      "stateMutability": "nonpayable",
      "type": "function"
    },
    {
      "inputs": [],
      "name": "owner",
      "outputs": [
        {
          "internalType": "address",
          "name": "",
          "type": "address"
        }
      ],
      "stateMutability": "view",
      "type": "function"
    },
    {
      "inputs": [
        {
          "internalType": "address",
          "name": "from",
          "type": "address"
        },
        {
          "internalType": "address",
          "name": "to",
          "type": "address"
        },
        {
          "internalType": "uint256[]",
          "name": "ids",
          "type": "uint256[]"
        },
        {
          "internalType": "uint256[]",
          "name": "amounts",
          "type": "uint256[]"
        },
        {
          "internalType": "bytes",
          "name": "data",
          "type": "bytes"
        }
      ],
      "name": "safeBatchTransferFrom",
      "outputs": [],
      "stateMutability": "nonpayable",
      "type": "function"
    },
    {
      "inputs": [
        {
          "internalType": "address",
          "name": "from",
          "type": "address"
        },
        {
          "internalType": "address",
          "name": "to",
          "type": "address"
        },
        {
          "internalType": "uint256",
          "name": "id",
          "type": "uint256"
        },
        {
          "internalType": "uint256",
          "name": "amount",
          "type": "uint256"
        },
        {
          "internalType": "bytes",
          "name": "data",
          "type": "bytes"
        }
      ],
      "name": "safeTransferFrom",
      "outputs": [],
      "stateMutability": "nonpayable",
      "type": "function"
    },
    {
      "inputs": [
        {
          "internalType": "address",
          "name": "operator",
          "type": "address"
        },
        {
          "internalType": "bool",
          "name": "approved",
          "type": "bool"
        }
      ],
      "name": "setApprovalForAll",
      "outputs": [],
      "stateMutability": "nonpayable",
      "type": "function"
    },
    {
      "inputs": [
        {
          "internalType": "bytes4",
          "name": "interfaceId",
          "type": "bytes4"
        }
      ],
      "name": "supportsInterface",
      "outputs": [
        {
          "internalType": "bool",
          "name": "",
          "type": "bool"
        }
      ],
      "stateMutability": "view",
      "type": "function"
    },
    {
      "inputs": [
        {
          "internalType": "uint256",
          "name": "tokenId",
          "type": "uint256"
        }
      ],
      "name": "uri",
      "outputs": [
        {
          "internalType": "string",
          "name": "",
          "type": "string"
        }
      ],
      "stateMutability": "pure",
      "type": "function"
    }
  ],
  "bytecode": "0x60806040523480156200001157600080fd5b506040518060600160405280603081526020016200305a603091396200003d816200008560201b60201c565b5033600360006101000a81548173ffffffffffffffffffffffffffffffffffffffff021916908373ffffffffffffffffffffffffffffffffffffffff160217905550620001b6565b80600290805190602001906200009d929190620000a1565b5050565b828054620000af9062000180565b90600052602060002090601f016020900481019282620000d357600085556200011f565b82601f10620000ee57805160ff19168380011785556200011f565b828001600101855582156200011f579182015b828111156200011e57825182559160200191906001019062000101565b5b5090506200012e919062000132565b5090565b5b808211156200014d57600081600090555060010162000133565b5090565b7f4e487b7100000000000000000000000000000000000000000000000000000000600052602260045260246000fd5b600060028204905060018216806200019957607f821691505b60208210811415620001b057620001af62000151565b5b50919050565b612e9480620001c66000396000f3fe608060405234801561001057600080fd5b50600436106100a85760003560e01c80634e1273f4116100715780634e1273f41461017557806370a08231146101a55780638da5cb5b146101d5578063a22cb465146101f3578063e985e9c51461020f578063f242432a1461023f576100a8565b8062fdd58e146100ad57806301ffc9a7146100dd5780630e89341c1461010d5780632eb2c2d61461013d57806340c10f1914610159575b600080fd5b6100c760048036038101906100c29190611947565b61025b565b6040516100d49190611996565b60405180910390f35b6100f760048036038101906100f29190611a09565b610324565b6040516101049190611a51565b60405180910390f35b61012760048036038101906101229190611a6c565b610406565b6040516101349190611b32565b60405180910390f35b61015760048036038101906101529190611d51565b610437565b005b610173600480360381019061016e9190611947565b6104d8565b005b61018f600480360381019061018a9190611ee3565b610651565b60405161019c9190612019565b60405180910390f35b6101bf60048036038101906101ba919061203b565b61076a565b6040516101cc9190611996565b60405180910390f35b6101dd610822565b6040516101ea9190612077565b60405180910390f35b61020d600480360381019061020891906120be565b610848565b005b610229600480360381019061022491906120fe565b61085e565b6040516102369190611a51565b60405180910390f35b6102596004803603810190610254919061213e565b6108f2565b005b60008073ffffffffffffffffffffffffffffffffffffffff168373ffffffffffffffffffffffffffffffffffffffff1614156102cc576040517f08c379a00000000000000000000000000000000000000000000000000000000081526004016102c390612247565b60405180910390fd5b60008083815260200190815260200160002060008473ffffffffffffffffffffffffffffffffffffffff1673ffffffffffffffffffffffffffffffffffffffff16815260200190815260200160002054905092915050565b60007fd9b67a26000000000000000000000000000000000000000000000000000000007bffffffffffffffffffffffffffffffffffffffffffffffffffffffff1916827bffffffffffffffffffffffffffffffffffffffffffffffffffffffff191614806103ef57507f0e89341c000000000000000000000000000000000000000000000000000000007bffffffffffffffffffffffffffffffffffffffffffffffffffffffff1916827bffffffffffffffffffffffffffffffffffffffffffffffffffffffff1916145b806103ff57506103fe82610993565b5b9050919050565b6060610411826109fd565b604051602001610421919061233b565b6040516020818303038152906040529050919050565b61043f610b5e565b73ffffffffffffffffffffffffffffffffffffffff168573ffffffffffffffffffffffffffffffffffffffff16148061048557506104848561047f610b5e565b61085e565b5b6104c4576040517f08c379a00000000000000000000000000000000000000000000000000000000081526004016104bb906123de565b60405180910390fd5b6104d18585858585610b66565b5050505050565b600360009054906101000a900473ffffffffffffffffffffffffffffffffffffffff1673ffffffffffffffffffffffffffffffffffffffff163373ffffffffffffffffffffffffffffffffffffffff161461053257600080fd5b600073ffffffffffffffffffffffffffffffffffffffff168273ffffffffffffffffffffffffffffffffffffffff1614156105a2576040517f08c379a00000000000000000000000000000000000000000000000000000000081526004016105999061244a565b60405180910390fd5b6105be8282600160405180602001604052806000815250610e88565b6001600460008473ffffffffffffffffffffffffffffffffffffffff1673ffffffffffffffffffffffffffffffffffffffff1681526020019081526020016000205461060a9190612499565b600460008473ffffffffffffffffffffffffffffffffffffffff1673ffffffffffffffffffffffffffffffffffffffff168152602001908152602001600020819055505050565b60608151835114610697576040517f08c379a000000000000000000000000000000000000000000000000000000000815260040161068e90612561565b60405180910390fd5b6000835167ffffffffffffffff8111156106b4576106b3611b59565b5b6040519080825280602002602001820160405280156106e25781602001602082028036833780820191505090505b50905060005b845181101561075f5761072f85828151811061070757610706612581565b5b602002602001015185838151811061072257610721612581565b5b602002602001015161025b565b82828151811061074257610741612581565b5b60200260200101818152505080610758906125b0565b90506106e8565b508091505092915050565b60008073ffffffffffffffffffffffffffffffffffffffff168273ffffffffffffffffffffffffffffffffffffffff1614156107db576040517f08c379a00000000000000000000000000000000000000000000000000000000081526004016107d29061266b565b60405180910390fd5b600460008373ffffffffffffffffffffffffffffffffffffffff1673ffffffffffffffffffffffffffffffffffffffff168152602001908152602001600020549050919050565b600360009054906101000a900473ffffffffffffffffffffffffffffffffffffffff1681565b61085a610853610b5e565b8383611039565b5050565b6000600160008473ffffffffffffffffffffffffffffffffffffffff1673ffffffffffffffffffffffffffffffffffffffff16815260200190815260200160002060008373ffffffffffffffffffffffffffffffffffffffff1673ffffffffffffffffffffffffffffffffffffffff16815260200190815260200160002060009054906101000a900460ff16905092915050565b6108fa610b5e565b73ffffffffffffffffffffffffffffffffffffffff168573ffffffffffffffffffffffffffffffffffffffff161480610940575061093f8561093a610b5e565b61085e565b5b61097f576040517f08c379a0000000000000000000000000000000000000000000000000000000008152600401610976906126fd565b60405180910390fd5b61098c85858585856111a6565b5050505050565b60007f01ffc9a7000000000000000000000000000000000000000000000000000000007bffffffffffffffffffffffffffffffffffffffffffffffffffffffff1916827bffffffffffffffffffffffffffffffffffffffffffffffffffffffff1916149050919050565b60606000821415610a45576040518060400160405280600181526020017f30000000000000000000000000000000000000000000000000000000000000008152509050610b59565b600082905060005b60008214610a77578080610a60906125b0565b915050600a82610a70919061274c565b9150610a4d565b60008167ffffffffffffffff811115610a9357610a92611b59565b5b6040519080825280601f01601f191660200182016040528015610ac55781602001600182028036833780820191505090505b5090505b60008514610b5257600182610ade919061277d565b9150600a85610aed91906127b1565b6030610af99190612499565b60f81b818381518110610b0f57610b0e612581565b5b60200101907effffffffffffffffffffffffffffffffffffffffffffffffffffffffffffff1916908160001a905350600a85610b4b919061274c565b9450610ac9565b8093505050505b919050565b600033905090565b8151835114610baa576040517f08c379a0000000000000000000000000000000000000000000000000000000008152600401610ba190612854565b60405180910390fd5b600073ffffffffffffffffffffffffffffffffffffffff168473ffffffffffffffffffffffffffffffffffffffff161415610c1a576040517f08c379a0000000000000000000000000000000000000000000000000000000008152600401610c11906128e6565b60405180910390fd5b6000610c24610b5e565b9050610c34818787878787611442565b60005b8451811015610de5576000858281518110610c5557610c54612581565b5b602002602001015190506000858381518110610c7457610c73612581565b5b60200260200101519050600080600084815260200190815260200160002060008b73ffffffffffffffffffffffffffffffffffffffff1673ffffffffffffffffffffffffffffffffffffffff16815260200190815260200160002054905081811015610d15576040517f08c379a0000000000000000000000000000000000000000000000000000000008152600401610d0c90612978565b60405180910390fd5b81810360008085815260200190815260200160002060008c73ffffffffffffffffffffffffffffffffffffffff1673ffffffffffffffffffffffffffffffffffffffff168152602001908152602001600020819055508160008085815260200190815260200160002060008b73ffffffffffffffffffffffffffffffffffffffff1673ffffffffffffffffffffffffffffffffffffffff1681526020019081526020016000206000828254610dca9190612499565b9250508190555050505080610dde906125b0565b9050610c37565b508473ffffffffffffffffffffffffffffffffffffffff168673ffffffffffffffffffffffffffffffffffffffff168273ffffffffffffffffffffffffffffffffffffffff167f4a39dc06d4c0dbc64b70af90fd698a233a518aa5d07e595d983b8c0526c8f7fb8787604051610e5c929190612998565b60405180910390a4610e7281878787878761144a565b610e80818787878787611452565b505050505050565b600073ffffffffffffffffffffffffffffffffffffffff168473ffffffffffffffffffffffffffffffffffffffff161415610ef8576040517f08c379a0000000000000000000000000000000000000000000000000000000008152600401610eef90612a41565b60405180910390fd5b6000610f02610b5e565b90506000610f0f8561162a565b90506000610f1c8561162a565b9050610f2d83600089858589611442565b8460008088815260200190815260200160002060008973ffffffffffffffffffffffffffffffffffffffff1673ffffffffffffffffffffffffffffffffffffffff1681526020019081526020016000206000828254610f8c9190612499565b925050819055508673ffffffffffffffffffffffffffffffffffffffff16600073ffffffffffffffffffffffffffffffffffffffff168473ffffffffffffffffffffffffffffffffffffffff167fc3d58168c5ae7397731d063d5bbf3d657854427343f4c083240f7aacaa2d0f62898960405161100a929190612a61565b60405180910390a46110218360008985858961144a565b611030836000898989896116a4565b50505050505050565b8173ffffffffffffffffffffffffffffffffffffffff168373ffffffffffffffffffffffffffffffffffffffff1614156110a8576040517f08c379a000000000000000000000000000000000000000000000000000000000815260040161109f90612afc565b60405180910390fd5b80600160008573ffffffffffffffffffffffffffffffffffffffff1673ffffffffffffffffffffffffffffffffffffffff16815260200190815260200160002060008473ffffffffffffffffffffffffffffffffffffffff1673ffffffffffffffffffffffffffffffffffffffff16815260200190815260200160002060006101000a81548160ff0219169083151502179055508173ffffffffffffffffffffffffffffffffffffffff168373ffffffffffffffffffffffffffffffffffffffff167f17307eab39ab6107e8899845ad3d59bd9653f200f220920489ca2b5937696c31836040516111999190611a51565b60405180910390a3505050565b600073ffffffffffffffffffffffffffffffffffffffff168473ffffffffffffffffffffffffffffffffffffffff161415611216576040517f08c379a000000000000000000000000000000000000000000000000000000000815260040161120d906128e6565b60405180910390fd5b6000611220610b5e565b9050600061122d8561162a565b9050600061123a8561162a565b905061124a838989858589611442565b600080600088815260200190815260200160002060008a73ffffffffffffffffffffffffffffffffffffffff1673ffffffffffffffffffffffffffffffffffffffff168152602001908152602001600020549050858110156112e1576040517f08c379a00000000000000000000000000000000000000000000000000000000081526004016112d890612978565b60405180910390fd5b85810360008089815260200190815260200160002060008b73ffffffffffffffffffffffffffffffffffffffff1673ffffffffffffffffffffffffffffffffffffffff168152602001908152602001600020819055508560008089815260200190815260200160002060008a73ffffffffffffffffffffffffffffffffffffffff1673ffffffffffffffffffffffffffffffffffffffff16815260200190815260200160002060008282546113969190612499565b925050819055508773ffffffffffffffffffffffffffffffffffffffff168973ffffffffffffffffffffffffffffffffffffffff168573ffffffffffffffffffffffffffffffffffffffff167fc3d58168c5ae7397731d063d5bbf3d657854427343f4c083240f7aacaa2d0f628a8a604051611413929190612a61565b60405180910390a4611429848a8a86868a61144a565b611437848a8a8a8a8a6116a4565b505050505050505050565b505050505050565b505050505050565b6114718473ffffffffffffffffffffffffffffffffffffffff1661187c565b15611622578373ffffffffffffffffffffffffffffffffffffffff1663bc197c8187878686866040518663ffffffff1660e01b81526004016114b7959493929190612b71565b6020604051808303816000875af19250505080156114f357506040513d601f19601f820116820180604052508101906114f09190612bee565b60015b611599576114ff612c28565b806308c379a0141561155c5750611514612c4a565b8061151f575061155e565b806040517f08c379a00000000000000000000000000000000000000000000000000000000081526004016115539190611b32565b60405180910390fd5b505b6040517f08c379a000000000000000000000000000000000000000000000000000000000815260040161159090612d52565b60405180910390fd5b63bc197c8160e01b7bffffffffffffffffffffffffffffffffffffffffffffffffffffffff1916817bffffffffffffffffffffffffffffffffffffffffffffffffffffffff191614611620576040517f08c379a000000000000000000000000000000000000000000000000000000000815260040161161790612de4565b60405180910390fd5b505b505050505050565b60606000600167ffffffffffffffff81111561164957611648611b59565b5b6040519080825280602002602001820160405280156116775781602001602082028036833780820191505090505b509050828160008151811061168f5761168e612581565b5b60200260200101818152505080915050919050565b6116c38473ffffffffffffffffffffffffffffffffffffffff1661187c565b15611874578373ffffffffffffffffffffffffffffffffffffffff1663f23a6e6187878686866040518663ffffffff1660e01b8152600401611709959493929190612e04565b6020604051808303816000875af192505050801561174557506040513d601f19601f820116820180604052508101906117429190612bee565b60015b6117eb57611751612c28565b806308c379a014156117ae5750611766612c4a565b8061177157506117b0565b806040517f08c379a00000000000000000000000000000000000000000000000000000000081526004016117a59190611b32565b60405180910390fd5b505b6040517f08c379a00000000000000000000000000000000000000000000000000000000081526004016117e290612d52565b60405180910390fd5b63f23a6e6160e01b7bffffffffffffffffffffffffffffffffffffffffffffffffffffffff1916817bffffffffffffffffffffffffffffffffffffffffffffffffffffffff191614611872576040517f08c379a000000000000000000000000000000000000000000000000000000000815260040161186990612de4565b60405180910390fd5b505b505050505050565b6000808273ffffffffffffffffffffffffffffffffffffffff163b119050919050565b6000604051905090565b600080fd5b600080fd5b600073ffffffffffffffffffffffffffffffffffffffff82169050919050565b60006118de826118b3565b9050919050565b6118ee816118d3565b81146118f957600080fd5b50565b60008135905061190b816118e5565b92915050565b6000819050919050565b61192481611911565b811461192f57600080fd5b50565b6000813590506119418161191b565b92915050565b6000806040838503121561195e5761195d6118a9565b5b600061196c858286016118fc565b925050602061197d85828601611932565b9150509250929050565b61199081611911565b82525050565b60006020820190506119ab6000830184611987565b92915050565b60007fffffffff0000000000000000000000000000000000000000000000000000000082169050919050565b6119e6816119b1565b81146119f157600080fd5b50565b600081359050611a03816119dd565b92915050565b600060208284031215611a1f57611a1e6118a9565b5b6000611a2d848285016119f4565b91505092915050565b60008115159050919050565b611a4b81611a36565b82525050565b6000602082019050611a666000830184611a42565b92915050565b600060208284031215611a8257611a816118a9565b5b6000611a9084828501611932565b91505092915050565b600081519050919050565b600082825260208201905092915050565b60005b83811015611ad3578082015181840152602081019050611ab8565b83811115611ae2576000848401525b50505050565b6000601f19601f8301169050919050565b6000611b0482611a99565b611b0e8185611aa4565b9350611b1e818560208601611ab5565b611b2781611ae8565b840191505092915050565b60006020820190508181036000830152611b4c8184611af9565b905092915050565b600080fd5b7f4e487b7100000000000000000000000000000000000000000000000000000000600052604160045260246000fd5b611b9182611ae8565b810181811067ffffffffffffffff82111715611bb057611baf611b59565b5b80604052505050565b6000611bc361189f565b9050611bcf8282611b88565b919050565b600067ffffffffffffffff821115611bef57611bee611b59565b5b602082029050602081019050919050565b600080fd5b6000611c18611c1384611bd4565b611bb9565b90508083825260208201905060208402830185811115611c3b57611c3a611c00565b5b835b81811015611c645780611c508882611932565b845260208401935050602081019050611c3d565b5050509392505050565b600082601f830112611c8357611c82611b54565b5b8135611c93848260208601611c05565b91505092915050565b600080fd5b600067ffffffffffffffff821115611cbc57611cbb611b59565b5b611cc582611ae8565b9050602081019050919050565b82818337600083830152505050565b6000611cf4611cef84611ca1565b611bb9565b905082815260208101848484011115611d1057611d0f611c9c565b5b611d1b848285611cd2565b509392505050565b600082601f830112611d3857611d37611b54565b5b8135611d48848260208601611ce1565b91505092915050565b600080600080600060a08688031215611d6d57611d6c6118a9565b5b6000611d7b888289016118fc565b9550506020611d8c888289016118fc565b945050604086013567ffffffffffffffff811115611dad57611dac6118ae565b5b611db988828901611c6e565b935050606086013567ffffffffffffffff811115611dda57611dd96118ae565b5b611de688828901611c6e565b925050608086013567ffffffffffffffff811115611e0757611e066118ae565b5b611e1388828901611d23565b9150509295509295909350565b600067ffffffffffffffff821115611e3b57611e3a611b59565b5b602082029050602081019050919050565b6000611e5f611e5a84611e20565b611bb9565b90508083825260208201905060208402830185811115611e8257611e81611c00565b5b835b81811015611eab5780611e9788826118fc565b845260208401935050602081019050611e84565b5050509392505050565b600082601f830112611eca57611ec9611b54565b5b8135611eda848260208601611e4c565b91505092915050565b60008060408385031215611efa57611ef96118a9565b5b600083013567ffffffffffffffff811115611f1857611f176118ae565b5b611f2485828601611eb5565b925050602083013567ffffffffffffffff811115611f4557611f446118ae565b5b611f5185828601611c6e565b9150509250929050565b600081519050919050565b600082825260208201905092915050565b6000819050602082019050919050565b611f9081611911565b82525050565b6000611fa28383611f87565b60208301905092915050565b6000602082019050919050565b6000611fc682611f5b565b611fd08185611f66565b9350611fdb83611f77565b8060005b8381101561200c578151611ff38882611f96565b9750611ffe83611fae565b925050600181019050611fdf565b5085935050505092915050565b600060208201905081810360008301526120338184611fbb565b905092915050565b600060208284031215612051576120506118a9565b5b600061205f848285016118fc565b91505092915050565b612071816118d3565b82525050565b600060208201905061208c6000830184612068565b92915050565b61209b81611a36565b81146120a657600080fd5b50565b6000813590506120b881612092565b92915050565b600080604083850312156120d5576120d46118a9565b5b60006120e3858286016118fc565b92505060206120f4858286016120a9565b9150509250929050565b60008060408385031215612115576121146118a9565b5b6000612123858286016118fc565b9250506020612134858286016118fc565b9150509250929050565b600080600080600060a0868803121561215a576121596118a9565b5b6000612168888289016118fc565b9550506020612179888289016118fc565b945050604061218a88828901611932565b935050606061219b88828901611932565b925050608086013567ffffffffffffffff8111156121bc576121bb6118ae565b5b6121c888828901611d23565b9150509295509295909350565b7f455243313135353a2062616c616e636520717565727920666f7220746865207a60008201527f65726f2061646472657373000000000000000000000000000000000000000000602082015250565b6000612231602b83611aa4565b915061223c826121d5565b604082019050919050565b6000602082019050818103600083015261226081612224565b9050919050565b600081905092915050565b7f687474703a2f2f636c75737465722e666c6f77696e67636c6f75642e636e2f6460008201527f6576656c6f702f00000000000000000000000000000000000000000000000000602082015250565b60006122ce602783612267565b91506122d982612272565b602782019050919050565b60006122ef82611a99565b6122f98185612267565b9350612309818560208601611ab5565b80840191505092915050565b7f2e6a736f6e000000000000000000000000000000000000000000000000000000815250565b6000612346826122c1565b915061235282846122e4565b915061235d82612315565b60058201915081905092915050565b7f455243313135353a207472616e736665722063616c6c6572206973206e6f742060008201527f6f776e6572206e6f7220617070726f7665640000000000000000000000000000602082015250565b60006123c8603283611aa4565b91506123d38261236c565b604082019050919050565b600060208201905081810360008301526123f7816123bb565b9050919050565b7f63616e206e6f74206d696e7420746f20746865207a65726f2061646472657373600082015250565b6000612434602083611aa4565b915061243f826123fe565b602082019050919050565b6000602082019050818103600083015261246381612427565b9050919050565b7f4e487b7100000000000000000000000000000000000000000000000000000000600052601160045260246000fd5b60006124a482611911565b91506124af83611911565b9250827fffffffffffffffffffffffffffffffffffffffffffffffffffffffffffffffff038211156124e4576124e361246a565b5b828201905092915050565b7f455243313135353a206163636f756e747320616e6420696473206c656e67746860008201527f206d69736d617463680000000000000000000000000000000000000000000000602082015250565b600061254b602983611aa4565b9150612556826124ef565b604082019050919050565b6000602082019050818103600083015261257a8161253e565b9050919050565b7f4e487b7100000000000000000000000000000000000000000000000000000000600052603260045260246000fd5b60006125bb82611911565b91507fffffffffffffffffffffffffffffffffffffffffffffffffffffffffffffffff8214156125ee576125ed61246a565b5b600182019050919050565b7f61646472657373207a65726f206973206e6f7420612076616c6964206f776e6560008201527f7200000000000000000000000000000000000000000000000000000000000000602082015250565b6000612655602183611aa4565b9150612660826125f9565b604082019050919050565b6000602082019050818103600083015261268481612648565b9050919050565b7f455243313135353a2063616c6c6572206973206e6f74206f776e6572206e6f7260008201527f20617070726f7665640000000000000000000000000000000000000000000000602082015250565b60006126e7602983611aa4565b91506126f28261268b565b604082019050919050565b60006020820190508181036000830152612716816126da565b9050919050565b7f4e487b7100000000000000000000000000000000000000000000000000000000600052601260045260246000fd5b600061275782611911565b915061276283611911565b9250826127725761277161271d565b5b828204905092915050565b600061278882611911565b915061279383611911565b9250828210156127a6576127a561246a565b5b828203905092915050565b60006127bc82611911565b91506127c783611911565b9250826127d7576127d661271d565b5b828206905092915050565b7f455243313135353a2069647320616e6420616d6f756e7473206c656e6774682060008201527f6d69736d61746368000000000000000000000000000000000000000000000000602082015250565b600061283e602883611aa4565b9150612849826127e2565b604082019050919050565b6000602082019050818103600083015261286d81612831565b9050919050565b7f455243313135353a207472616e7366657220746f20746865207a65726f20616460008201527f6472657373000000000000000000000000000000000000000000000000000000602082015250565b60006128d0602583611aa4565b91506128db82612874565b604082019050919050565b600060208201905081810360008301526128ff816128c3565b9050919050565b7f455243313135353a20696e73756666696369656e742062616c616e636520666f60008201527f72207472616e7366657200000000000000000000000000000000000000000000602082015250565b6000612962602a83611aa4565b915061296d82612906565b604082019050919050565b6000602082019050818103600083015261299181612955565b9050919050565b600060408201905081810360008301526129b28185611fbb565b905081810360208301526129c68184611fbb565b90509392505050565b7f455243313135353a206d696e7420746f20746865207a65726f2061646472657360008201527f7300000000000000000000000000000000000000000000000000000000000000602082015250565b6000612a2b602183611aa4565b9150612a36826129cf565b604082019050919050565b60006020820190508181036000830152612a5a81612a1e565b9050919050565b6000604082019050612a766000830185611987565b612a836020830184611987565b9392505050565b7f455243313135353a2073657474696e6720617070726f76616c2073746174757360008201527f20666f722073656c660000000000000000000000000000000000000000000000602082015250565b6000612ae6602983611aa4565b9150612af182612a8a565b604082019050919050565b60006020820190508181036000830152612b1581612ad9565b9050919050565b600081519050919050565b600082825260208201905092915050565b6000612b4382612b1c565b612b4d8185612b27565b9350612b5d818560208601611ab5565b612b6681611ae8565b840191505092915050565b600060a082019050612b866000830188612068565b612b936020830187612068565b8181036040830152612ba58186611fbb565b90508181036060830152612bb98185611fbb565b90508181036080830152612bcd8184612b38565b90509695505050505050565b600081519050612be8816119dd565b92915050565b600060208284031215612c0457612c036118a9565b5b6000612c1284828501612bd9565b91505092915050565b60008160e01c9050919050565b600060033d1115612c475760046000803e612c44600051612c1b565b90505b90565b600060443d1015612c5a57612cdd565b612c6261189f565b60043d036004823e80513d602482011167ffffffffffffffff82111715612c8a575050612cdd565b808201805167ffffffffffffffff811115612ca85750505050612cdd565b80602083010160043d038501811115612cc5575050505050612cdd565b612cd482602001850186611b88565b82955050505050505b90565b7f455243313135353a207472616e7366657220746f206e6f6e204552433131353560008201527f526563656976657220696d706c656d656e746572000000000000000000000000602082015250565b6000612d3c603483611aa4565b9150612d4782612ce0565b604082019050919050565b60006020820190508181036000830152612d6b81612d2f565b9050919050565b7f455243313135353a204552433131353552656365697665722072656a6563746560008201527f6420746f6b656e73000000000000000000000000000000000000000000000000602082015250565b6000612dce602883611aa4565b9150612dd982612d72565b604082019050919050565b60006020820190508181036000830152612dfd81612dc1565b9050919050565b600060a082019050612e196000830188612068565b612e266020830187612068565b612e336040830186611987565b612e406060830185611987565b8181036080830152612e528184612b38565b9050969550505050505056fea2646970667358221220e4bd70fbb7bedb7d5b54216a78d1e13286ec0632594bce2b8a111be3d1b6415664736f6c634300080c0033687474703a2f2f636c75737465722e666c6f77696e67636c6f75642e636e2f646576656c6f702f7b69647d2e6a736f6e",
  "linkReferences": {},
  "deployedLinkReferences": {}
}